:040000000040B7F312
:20012200FFFFB00000000000FFFFB00100000000FFFFB00200000000FFFFB00300000000FF
:20013200FFFFB00400000000FFFFB00500000001FFFFB00600000000FFFFB00700000000DE
:20014200FFFFB00800000000FFFEB012000000000000FFFEB014000000000000FFFEB016A4
:20015200000000000000FFFEB018000000000000FFFEB01A0000000043C8FFFEB01C00002D
:200162000000437AFFFEB01E0000C5AC37A7FFFEB02000000000435CFFFEB02200008A3DA4
:20017200439BFFFEB024000000000000FFFEB026000000000000FFFEB02800000000000016
:20018200FFFEB02A000000000000FFFEB02C000000000000FFFEB02E000000000000FFFED5
:20019200B030000000000000FFFEB032000000000000FFFEB034000000000000FFFEB036CA
:2001A200000000000000FFFEB038000000000000FFFEB03A000000000000FFFEB03C000088
:2001B20000000000FFFEB03E000000000000FFFEB040000000000000FFE2B0440000000080
:2001C200000079000000790100007902000079030000790400007905000079060000790739
:2001D20000007908000079090000790A0000790B0000790C0000790D0000FFE6B062000001
:2001E200000000004000000041000000420000004300000044000000450000004600000028
:2001F2004700000048000000490000004A0000004B000000FFF2B0980000000000005000F7
:2002020000005020000050400000506000005080000050A00000FFF6A9F4000000000000DA
:2002120074000000748000007500000075800000FFF8ABF400000000000051000000514082
:20022200000051800000FFF8ADF4000000000000610000006110000061200000FFFEB0A6AD
:200232000000B7F20000FFFEB0A80000B7F20000FFFEB0AA000000000000FFFEB0AC000055
:2002420000000000FFFAAFFA0000000000005E0000005E800000FFFCABFC0000000000001C
:2002520073000000FFFCADFC00000000000060000000FFFCB07C000000000000720000007C
:0C026200FFFFA9FE0000000000000000EB
:2002680076228F00B5D6761F0035A800761A7622761F01D0CC01FFF050069601761F01D2B3
:20027800CC01FFF050069601761F01D4CC01FFF050069601761F01D6CC01FFF05006960195
:200288009B00FF699A00D400764086889A01D4009B00764086889A02D4009B007640868884
:200298009A03D4009B0076408688761F01D01A000004761F01D21A000004761F01D41A00E8
:2002A8000004761F01D61A000004761F01D01A000080761F01D21A000080761F01D41A0022
:2002B8000080761F01D61A0000808F009C3EA8A9764087F5761AFF6900067640859E761F48
:2002C8000101282303E8282B02EE2B21761F01002B04CC00FFFC500296001800FFFB1800B1
:2002D800FC7F1800E3FF761F0101CC00FFCF50209600CC00FF3F50409600CC02FFCF50102E
:2002E8009602CC02FF3F50809602761F01001A0C0003CC0CFFF35008960C0006764085FC2A
:2002F800761F0115282303E8282B02EE2B21761F01142B04CC00FFFC500296001800FFFBDC
:200308001800FC7F1800E3FF761F0115CC00FFCF50209600CC00FF3F50409600CC02FFCF31
:2003180050109602CC02FF3F50809602761F01141A0C0003CC0CFFF35008960C7622761F95
:2003280001161A240800CC24F8FF1AA902009624CC26FCFF1AA901009626761AFF69000687
:20033800FE029641761F01D0CC010040FFC5600456BF0E426F0356BF3F427622A310020F6A
:2003480018AB7FFF18AAFFF88941FF3ECAABCBAA1E10CC4201FFCD10FE00CAA89610CC119E
:20035800FE0F50F096111807FFF01A0700201A040001020F761F01D28941FF3EA31018AB2D
:200368007FFF18AAFFF8CAABCBAA1E10CC4201FFCD10FE00CAA89610CC11FE0F50F0961154
:200378001807FFF01A0700201A040001020F761F01D68941FF3EA31018AB7FFF18AAFFF8C6
:20038800CAABCBAA1E10CC4201FFCD10FE00CAA89610CC11FE0F50F096111807FFF01A073C
:2003980000201A040001761F01D4061018A8FFF818A97FFF51011E10CC4201FFCD10FE0027
:2003A800CAA89610CC11FE0F50F096111807FFF01A0700201A040001761AFF69FE82000660
:2003B80028AD0400FF69561F5616561AE61002002940761F00002902761B762228A9012255
:2003C80028A800000901611B76C0012229046F0F9B0024A9DF016C04290424A8DF011EA666
:2003D800F7A1248606A781A109011EA724A96303FF5C3B0459A9DF010009FFEC761A28A921
:2003E800FFFF28A8FFFF0901610E76FFFFFF6F06DF01C3BD1EA73E67C5BE24A9DF0124A802
:0C03F800FF5860F7764087DC76408C26CA
:20800000761BFFF0E20000BDE63006002942561676256F00761BFFF0E20000BDE630060009
:208010002942561676256F00761BFFF0E20000BDE63006002942561676256F00761BFFF0D3
:20802000E20000BDE63006002942561676256F00761BFFF0E20000BDE63006002942561692
:2080300076256F00761BFFF0E20000BDE63006002942561676256F00761BFFF0E20000BDEB
:20804000E63006002942561676256F00761BFFF0E20000BDE63006002942561676256F0007
:20805000761BFFF0E20000BDE63006002942561676256F00761BFFF0E20000BDE6300600B9
:208060002942561676256F00761BFFF0E20000BDE63006002942561676256F00761BFFF083
:20807000E20000BDE63006002942561676256F00761BFFF0E20000BDE63006002942561642
:2080800076256F00761BFFF0E20000BDE63006002942561676256F00761BFFF0E20000BD9B
:20809000E63006002942561676256F00761BFFF0E20000BDE63006002942561676256F00B7
:2080A000761BFFF0E20000BDE63006002942561676256F00761BFFF0E20000BDE630060069
:2080B0002942561676256F00761BFFF0E20000BDE63006002942561676256F00761BFFF033
:2080C000E20000BDE63006002942561676256F00761BFFF0E20000BDE630060029425616F2
:2080D00076256F00761BFFF0E20000BDE63006002942561676256F00761BFFF0E20000BD4B
:2080E000E63006002942561676256F00761BFFF0E20000BDE63006002942561676256F0067
:2080F000761BFFF0E20000BDE63006002942561676256F00761BFFF0E20000BDE630060019
:208100002942561676256F00761BFFF0E20000BDE63006002942561676256F00761BFFF0E2
:20811000E20000BDE63006002942561676256F00761BFFF0E20000BDE630060029425616A1
:2081200076256F00761BFFF0E20000BDE63006002942561676256F00761BFFF0E20000BDFA
:20813000E63006002942561676256F00761BFFF0E20000BDE63006002942561676256F0016
:20814000761BFFF0E20000BDE63006002942561676256F00761BFFF0E20000BDE6300600C8
:208150002942561676256F00761BFFF0E20000BDE63006002942561676256F00761BFFF092
:20816000E20000BDE63006002942561676256F00761BFFF0E20000BDE63006002942561651
:2081700076256F00761BFFF0E20000BDE63006002942561676256F00761BFFF0E20000BDAA
:20818000E63006002942561676256F00761BFFF0E20000BDE63006002942561676256F00C6
:20819000761BFFF0E20000BDE63006002942561676256F00761BFFF0E20000BDE630060078
:2081A0002942561676256F00761BFFF0E20000BDE63006002942561676256F00761BFFF042
:2081B000E20000BDE63006002942561676256F00761BFFF0E20000BDE63006002942561601
:2081C00076256F00761BFFF0E20000BDE63006002942561676256F00761BFFF0E20000BD5A
:2081D000E63006002942561676256F00761BFFF0E20000BDE63006002942561676256F0076
:2081E000761BFFF0E20000BDE63006002942561676256F00761BFFF0E20000BDE630060028
:2081F0002942561676256F00761BFFF0E20000BDE63006002942561676256F00761BFFF0F2
:20820000E20000BDE63006002942561676256F00761BFFF0E20000BDE630060029425616B0
:2082100076256F00761BFFF0E20000BDE63006002942561676256F00761BFFF0E20000BD09
:20822000E63006002942561676256F00761BFFF0E20000BDE63006002942561676256F0025
:20823000761BFFF0E20000BDE63006002942561676256F00761BFFF0E20000BDE6300600D7
:208240002942561676256F00761BFFF0E20000BDE63006002942561676256F00761BFFF0A1
:20825000E20000BDE63006002942561676256F00761BFFF0E20000BDE63006002942561660
:2082600076256F00761BFFF0E20000BDE63006002942561676256F00761BFFF0E20000BDB9
:20827000E63006002942561676256F00761BFFF0E20000BDE63006002942561676256F00D5
:20828000761BFFF0E20000BDE63006002942561676256F00761BFFF0E20000BDE630060087
:208290002942561676256F00761BFFF0E20000BDE63006002942561676256F00761BFFF051
:2082A000E20000BDE63006002942561676256F00761BFFF0E20000BDE63006002942561610
:2082B00076256F00761BFFF0E20000BDE63006002942561676256F00761BFFF0E20000BD69
:2082C000E63006002942561676256F00761BFFF0E20000BDE63006002942561676256F0085
:2082D000761BFFF0E20000BDE63006002942561676256F00761BFFF0E20000BDE630060037
:2082E0002942561676256F00761BFFF0E20000BDE63006002942561676256F00761BFFF001
:2082F000E20000BDE63006002942561676256F00761BFFF0E20000BDE630060029425616C0
:2083000076256F00761BFFF0E20000BDE63006002942561676256F00761BFFF0E20000BD18
:20831000E63006002942561676256F00761BFFF0E20000BDE63006002942561676256F0034
:20832000761BFFF0E20000BDE63006002942561676256F00761BFFF0E20000BDE6300600E6
:208330002942561676256F00761BFFF0E20000BDE63006002942561676256F00761BFFF0B0
:20834000E20000BDE63006002942561676256F00761BFFF0E20000BDE6300600294256166F
:2083500076256F00761BFFF0E20000BDE63006002942561676256F00761BFFF0E20000BDC8
:20836000E63006002942561676256F00761BFFF0E20000BDE63006002942561676256F00E4
:20837000761BFFF0E20000BDE63006002942561676256F00761BFFF0E20000BDE630060096
:208380002942561676256F00761BFFF0E20000BDE63006002942561676256F00761BFFF060
:20839000E20000BDE63006002942561676256F00761BFFF0E20000BDE6300600294256161F
:2083A00076256F00761BFFF0E20000BDE63006002942561676256F00761BFFF0E20000BD78
:2083B000E63006002942561676256F00761BFFF0E20000BDE63006002942561676256F0094
:2083C000761BFFF0E20000BDE63006002942561676256F00761BFFF0E20000BDE630060046
:2083D0002942561676256F00761BFFF0E20000BDE63006002942561676256F00761BFFF010
:2083E000E20000BDE63006002942561676256F00761BFFF0E20000BDE630060029425616CF
:2083F00076256F00761BFFF0E20000BDE63006002942561676256F00761BFFF0E20000BD28
:20840000E63006002942561676256F00761BFFF0E20000BDE63006002942561676256F0043
:20841000761BFFF0E20000BDE63006002942561676256F00761BFFF0E20000BDE6300600F5
:208420002942561676256F00761BFFF0E20000BDE63006002942561676256F00761BFFF0BF
:20843000E20000BDE63006002942561676256F00761BFFF0E20000BDE6300600294256167E
:2084400076256F00761BFFF0E20000BDE63006002942561676256F00761BFFF0E20000BDD7
:20845000E63006002942561676256F00761BFFF0E20000BDE63006002942561676256F00F3
:20846000761BFFF0E20000BDE63006002942561676256F00761BFFF0E20000BDE6300600A5
:208470002942561676256F00761BFFF0E20000BDE63006002942561676256F00761BFFF06F
:20848000E20000BDE63006002942561676256F00761BFFF0E20000BDE6300600294256162E
:2084900076256F00761BFFF0E20000BDE63006002942561676256F00761BFFF0E20000BD87
:2084A000E63006002942561676256F00761BFFF0E20000BDE63006002942561676256F00A3
:2084B000761BFFF0E20000BDE63006002942561676256F00761BFFF0E20000BDE630060055
:2084C0002942561676256F00761BFFF0E20000BDE63006002942561676256F00761BFFF01F
:2084D000E20000BDE63006002942561676256F00761BFFF0E20000BDE630060029425616DE
:2084E00076256F00761BFFF0E20000BDE63006002942561676256F00761BFFF0E20000BD37
:2084F000E63006002942561676256F00761BFFF0E20000BDE63006002942561676256F0053
:20850000761BFFF0E20000BDE63006002942561676256F00761BFFF0E20000BDE630060004
:208510002942561676256F00761BFFF0E20000BDE63006002942561676256F00761BFFF0CE
:20852000E20000BDE63006002942561676256F00761BFFF0E20000BDE6300600294256168D
:2085300076256F00761BFFF0E20000BDE63006002942561676256F00761BFFF0E20000BDE6
:20854000E63006002942561676256F00761BFFF0E20000BDE63006002942561676256F0002
:20855000761BFFF0E20000BDE63006002942561676256F00761BFFF0E20000BDE6300600B4
:208560002942561676256F00761BFFF0E20000BDE63006002942561676256F00761BFFF07E
:20857000E20000BDE630060029425616E28000BEFFF176177602761BFFF0E20000BDE6300F
:2085800006002942561676256F007640859E764085B0764085C3764085D7764085EA764045
:2085900085FC7640860F764086237640863C7640864E764086617640867500067622761F1D
:2085A00001F41A0D00021A0D0004CC08FFF350049608CC08FFCF50109608761AFF6900061C
:2085B0007622761F01F41A0D00081A0D0010CC08FF3F50409608CC08FCFF1AA901009608B2
:2085C000761AFF6900067622761F01F41A0D00201A0D0040CC08F3FF1AA904009608CC08CE
:2085D000CFFF1AA910009608761AFF6900067622761F01F41A0D00801A0D0100CC083FFF4B
:2085E0001AA940009608CC09FFFC50019609761AFF6900067622761F01F41A0D02001A0DAA
:2085F0000400CC09FFF350049609CC09FFCF50109609761AFF6900067622761F01F41A0DC4
:2086000008001A0D1000CC09FF3F50409609CC09FCFF1AA901009609761AFF690006762210
:20861000761F01F41A0D20001A0D4000CC09F3FF1AA904009609CC09CFFF1AA910009609D0
:20862000761AFF6900067622761F01F41A0D8000761F01F51A0C0001761F01F4CC093FFF24
:208630001AA940009609761F01F5CC06FFFC50019606761AFF6900067622761F01F51A0CFC
:2086400000021A0C0004CC06FFF350049606CC06FFCF50109606761AFF6900067622761F73
:2086500001F51A0C00081A0C0010CC06FF3F50409606CC06FCFF1AA901009606761AFF694F
:2086600000067622761F01F51A0C00201A0C0040CC06F3FF1AA904009606CC06CFFF1AA99B
:2086700010009606761AFF6900067622761F01F51A0C00801A0C0100CC063FFF1AA940003D
:208680009606CC07FFFC50019607761AFF690006FE067C43974296417640873F8F0703AC50
:208690000EC48F00FFFF0FA4610F5603024188A95603014294A69443964476C703AC3E6763
:2086A0009645FFEF00922B45FFEF008F761F01D09242CD01FFBF9001FF85CAA896019243B9
:2086B0009001CD01FF7FFF86CAA896019245963B9242FFE00084761F01D1063090001E30E5
:2086C000063290001E32063690001E36063890001E386F74761F01D29242CD01FFBF900102
:2086D000FF85CAA8960192439001CD01FF7FFF86CAA896019245963B92426060761F01D318
:2086E000063090001E30063290001E32063690001E36063890001E386F51761F01D492420C
:2086F000CD01FFBF9001FF85CAA8960192439001CD01FF7FFF86CAA896019245963B924204
:20870000603D761F01D5063090001E30063290001E32063690001E36063890001E386F2E44
:20871000761F01D69242CD01FFBF9001FF85CAA8960192439001CD01FF7FFF86CAA896011F
:208720009245963B9242601A761F01D7063090001E30063290001E32063690001E3606384C
:2087300090001E386F0B9241FFE1FF7252016193520261B4520361D56F01FE860006FE0270
:2087400096416F2D8F0703B40EC48F00FFFF0FA4612F76C703B43E676F2B8F0703B20EC467
:208750008F00FFFF0FA4612476C703B23E676F208F0703B00EC48F00FFFF0FA4611976C70C
:2087600003B03E676F158F0703AE0EC48F00FFFF0FA4610E76C703AE3E676F0A520061D3C3
:20877000520161DC520261E5520361EE6F01FE82000676408800764087B43B10762600000F
:20878000762F0000FF6976408BFE76408AEE76408AA876400268764002C5764002F69A0092
:20879000764003387640B7987640B7B8761F00331A2000011A220001762300012910292052
:2087A0006F00FE04A044A84206440F42690C8A429284A8428A48C4A4DE01C24896C40644D7
:2087B0000F4266F6FE8400063B10761F00331820FFFE2B222B242B262B282B2A2B2C2B2EE7
:2087C0002B302B322B342B362B382B232B252B272B292B2B2B2D2B2F2B312B332B352B37F6
:2087D0002B39FF690006761F00331A2000012821FFFF2910FF69000628ABFFFF28AAFFFF25
:2087E00028A9FFFF28A8FFFF0FABED04BE00D4006F0928ABFFFF28AAFFFFA9A488C40902E2
:0A87F0008AA992A676408779000658
:0887F500190156C3FFFF000645
:20880000764088D97622FF697640B58B761F174C1A3C00011A3C00021A3C00041A3C0008EC
:208810008F05D1B692C460098F007BDD761F1746A836A838A83AA83C761F174C183CFFFEC8
:20882000183CFFFD183CFFFB183CFFF7761A9A01D400D5019B14FF69764088E776408831D0
:2088300000067622761F174C1A2200011A2200041A2200081A2200101A2200201A230001EB
:208840001A2300041A2400011A2400021A2600011A2600021A2600041A2600081A260010F9
:208850001A2600201A2800011A2800021A2800041A2800081A2800101A2800201A2A000198
:208860001A2A00021A2A00041A2E00011A2E00021A3000011A3000021A3000041A300008A0
:208870001A3200011A3200021A3200041A3400011A3400021A3600011A3600021A38000168
:208880001A3800021A3900011A3A00011A3C00011A3C00021A3C00041A3C00081A3E00011B
:208890001A3E00021A3E00041A3E00081A3E00101A3E00201A3E00401A3E0080761F174D69
:2088A0001A0300011A0300021A030004761AFF69000676220200761F174C1E221E241E2604
:2088B0001E281E2A1E2E1E301E321E341E361E381E3A1E3C1E3E761F174D1E02761AFF6915
:2088C000000676229A0028A85A5A761F14001E24761AFF6900067622761F01C0CC25FF0015
:2088D00050559625CC25FF0050AA9625761AFF690006FE027622761F01C09229900796416E
:2088E000924150689629761AFF69FE820006FE067D447C4397429641761F17488841920825
:2088F00090030EA90FA6601488429214907F0EA90FA6600E8843CC140300FFC70EA90FA6BC
:20890000600788449222903F0EA90FA661628841920890030EA90FA661116F0A76408A1EC7
:208910006F0D76408A286F0A76408A326F07924161F9520161FA520261F27622761F1748F4
:2089200088429214907F0EA90FA660088843CC140300FFC70EA90FA66122180EFFFD182225
:20893000FFC006141E4618A9FC8091001EA756030843CA4288A906A7AFA61E141A0E000119
:2089400092169001520160FD9242CD14FF80907FCAA8961492169001520160FD9244523F7F
:2089500061089C01CD22FFC0903FCAA896226F06CD22FFC0903FCAA896221A0E0002F664BA
:2089600077009244CD22FFC0903FCAA89622761AFE86FF690006FE087D447C43974296414B
:20897000761F17488841920A90030EA90FA6601E8842921E907F0EA90FA660188843CC1EEF
:208980000300FFC70EA90FA660118844922490030EA90FA661706F0A76408A3E6F0D7640B6
:208990008A486F0A76408A546F07924161F6520161F7520461F80E42761F17481EA6921E36
:2089A000907F80A906A60FA7600A0E431EA6CC1E0300FFC780A906A60FA7612476221A2405
:2089B0000003061E1E4818A9FC8091001EA756030843CA4288A906A7AFA61E1E1A18000135
:2089C000761A92209001520160FD76229242CD1EFF80907FCAA8961E761A922090015201E3
:2089D00060FD56BF03456F1976229245CD24FFFC9CFF9003CAA89624761A0B450E441EA69A
:2089E0009224900380A906A60FA761078F000256FF69A8A9764087F50E44761F17481EA65F
:2089F0009224900380A906A60FA760DF76221A180002761AFE88FF69000676220200761FD5
:208A000017C019011E10020019011E12020019011E14020019011E160200761F17C11901C4
:208A10001E10020019011E12020019011E14020019011E16761A9A00FF6900067622761F69
:208A20001748CC08FFFC50029608761AFF6900067622761F17481808FFF71808FFFC761ACD
:208A3000FF6900067622761F17481808FFEFCC08FFFC50019608761AFF6900067622761F35
:208A400017481808FFF7180AFFFC761AFF6900067622761F17481808FFEFCC0AFFFC5001CA
:208A5000960A761AFF6900067622761F1748CC0AFFFC5002960A761AFF6900067622761FEE
:208A6000174D1836FFFC761A7621FF6900067622761F174DCC36FFFC50019636761A7621E2
:208A7000FF6900067622761F174DCC36FFFC50029636761A761F174492259003520160FB54
:208A80007622761F1748180EFFFD180EFFFE761A7621FF6900067622761F174D1A3600038C
:208A9000761A761F174492259003600592249001520161F8FF69764088A97622761F1748C9
:208AA000180EFFFD180EFFFE761A7621FF6900069A1CD4019B007640B3D29A1CD4009B0056
:208AB0007640B45E9A1DD4019B007640B3D29A1DD4309B017640B45E761F01C856BF0700E3
:208AC00056BF030156BF03041A0400011A04000256BF020256BF8B0356BF23010006FE0227
:208AD0009641761F01C8CC0A1F00FFC760FB92419609FE820006FE04A8422B433B016F0836
:208AE000854307428AA992C476408ACF0A43854307428AA992C460F5FE840006761F01C8AB
:208AF000280AE040280B20442B0C0006FE0CE2030046A844E5A0AD14630856BF014CE6AF77
:208B00000000E20300466F022B4CE81223D0AD146406E80223D0E20300486F17E81216404A
:208B1000AD146406E8021640E20300486F0EE8120900AD146406E8020900E20300486F056E
:208B2000E801FC00E2030048924C6106A8A909011E4456BF2DC42B4B924B52056344E2AF39
:208B30000046E2AF014876408B76E203004AE68E00008A44C4A4BFA90F129C30DE01C2443B
:208B400096C4E2AF004AE68E00007700E68F0000E2AF0148E7000008E2AF0346E7200018BE
:208B50007700E2030046E2AF0048E811FC00AD1460078A44A8A909011E4456BF2EC4E802F1
:208B60000901E2AF004876408B76E20300489A00934B530260029A01CE4C60050A4B924BB3
:208B7000520564BE8A442BC4FE8C00063ABDB2BDAABDA2BDFE022901BFA90F12FF58615B2D
:208B80005CA8917F08A800801E4293A4FFD65CA8BFA90F1661675DA8917F08A8008059A886
:208B900058A993A5FFD65DA893A471A518A8010097A618A400FF18A500FFDC7F92A49EA51C
:208BA00096A7644D08A9FF01623E93A192A0FF3659A858A90642FF35F60E1FA15BA901A3F1
:208BB000F60A1FA1562D04A22DA336A0FF40F60B1FA1FF339B00FF30FF540CA295A3FF40A2
:208BC00008A70001F61FFF770920FF4008A70001F61FFF77FF5A92A7652208A9FF01631377
:208BD000A9A9FF46917F5BA85AA925A695A7FF960CA295A3BDA90F12FE8282BE86BE8BBE82
:208BE0008EBE00069B00FF5708A8FF7FFF5A93A660F228A8800071AA92AB6FEDFF200000FD
:208BF0006FEAFF5A93A418A80100FF965CA8A9A908A8FF7F1CA88000CBA46FDDFE068F0010
:208C0000B0AEA8428F000D00A844020607421E42020607441E4476222B45924552DD670D9C
:208C100083448A42A0A9C4840902A8421E44C2C50A45924552DD68F5761A761F00331A20FE
:208C20000001FF69FE86000677006F00761F02C2B2BDC52859A93E67761F02C2062CEC0484
:208C30001EA792A13E67761F02C2062AEC031EA73E6776408C248BBE0006C141C0420644A2
:208C4000CFAACEABFF5A06427620994198420644CBAACAABFF5A06427620F341F24206441A
:0A8C500071AA70ABFF5A06427620AD
:208C5600E20304BDE20305BDE20306BDE7200044E2AF05C4E7000166E2AF05D4E70001AC18
:208C660028A1000AE2AF059CE7000163E2AF04E4E71000E5E591E20305E4E71001A8E88FEE
:208C7600E00DE2AF03F4E69D035828A00008E2AF0394E69C0358E2AF06BEE203059CE2AF4A
:088C860005BEE2AF04BE0006CA
:20B00000FE0476220200761F01F01E3C761F01F11E3C761F01F21E3C761F01F31E3C761F79
:20B0100001F41E3C761F01F51E3C8F007C00A8422B43924352C0670F2901BE00901F52063D
:20B0200061065603014307428AA9C2C40A43924352C068F58F007F00A8422B4392435218D4
:20B03000670C2901BE005603014307428AA9C2C40A439243521868F8761F01F0180CFEFF73
:20B040001A03000CCC21FFFC50019621CC07FFFC50029607CC21FFF350049621CC07FFF36B
:20B05000500896071A0A0100180AFDFF180DFFFB1A0400301822FFCFCC08FFCF5020960883
:20B060001A0B0004180CF7FF1A0300C01821FF3FCC07FF3F50809607180AF7FF180CFFFE82
:20B070001A020003CC20FFFC50019620CC06FFFC50029606180CFFFD1A02000CCC20FFF3D2
:20B0800050049620CC06FFF3500896061A0A0002761F01F1180D7FFF761F01F21A0C0001EF
:20B09000180CFFFD761F01F4180C7FFF761F01F11A23C0001A09C000761F01F21A20000328
:20B0A0001A060003180AFFFE1A20000C1A06000C761F01F418213FFF18073FFF1A0A8000DA
:20B0B000761F01F1180DFFBF1A0D0080180DFEFF761F01F3180DFFF7180DFFDF761F01F41C
:20B0C000180CFFFB761F01F1180CFFFE761F01F2180CFFF7761F01F11822CFFFCC08CFFFD7
:20B0D0001AA91000960818223FFFCC083FFF1AA9400096081823FFFCCC09FFFC50019609CE
:20B0E000761F01F31822FF3F1808FF3F1A0B00081822F3FF1808F3FF1A0B0020761F01F4B7
:20B0F0001820FFCF1806FFCF1A0A0004761F01F11820FFFC1806FFFC1A0A0001761F01F2A6
:20B100001820FF3F1806FF3F1A0A0008761F01F3180CBFFF761F01FC1A1A4000761F01F337
:20B110001807CFFF1A0A4000761F01FC1A2200041A1B00201A1B00081A0A00011A12000811
:20B12000761F01F41821FFF31807FFF31A0A0200761F01F31823F3FF1809F3FF1A0B200015
:20B13000761F01F21822FCFF1808FCFF1A0B00101820FCFF1806FCFF1A0A00101823CFFF69
:20B140001809CFFF1A0B4000761F01F41821FFCF1807FFCF1A0A04001821FFFC1807FFFCA7
:20B150001A0A010018203FFF18063FFF1A0A00801820CFFF1806CFFF1A0A0040761F01FC5C
:20B160001A1200101A1340001A2200401A2200801A2201001A2204001A1500101A1D2000DB
:20B170001A240200761F01F41820F3FF1806F3FF1A0A0020761F01F318223FFF18083FFF18
:20B180001A0B0080761F01F41820FCFF1806FCFF180AFFEF761F01F31808FCFF1A0B00104B
:20B19000761F01FC1A1B0010761F01F318233FFF18093FFF1A0B8000761F01FC1A1B80007B
:20B1A000761F01F41820FFF31806FFF31A0A0002761F01FC1A220002761F01F2CC09FCFF7D
:20B1B0001AA902009609CC09FF3F50809609CC09FFCF50209609CC09FFF350089609CC0954
:20B1C000FFFC50029609CC083FFF1AA980009608CC08CFFF1AA920009608761F01F1CC0812
:20B1D000FCFF1AA902009608CC08FF3F50809608CC08FFCF50209608CC08FFF35008960815
:20B1E000CC08FFFC50029608CC073FFF1AA980009607CC07CFFF1AA920009607CC07F3FFB9
:20B1F0001AA908009607CC07FCFF1AA902009607CC07FFF350089607CC07FFFC5002960730
:20B20000CC063FFF1AA980009606CC06CFFF1AA920009606761F01F2CC06F3FF1AA9080009
:20B210009606CC06CFFF1AA920009606CC063FFF1AA980009606CC07FFFC50029607CC07E4
:20B22000FFF350089607CC07FFCF50209607CC07FF3F50809607CC07FCFF1AA902009607CB
:20B23000CC07F3FF1AA908009607CC07CFFF1AA920009607CC073FFF1AA980009607CC08EB
:20B24000FFFC50029608CC08FFF350089608CC08FFCF50209608CC08FF3F50809608CC0843
:20B25000F3FF1AA908009608761F01F11806FF3FCC06FFCF50209606761F01F0CC093FFF5B
:20B260001AA980009609761F01F1CC06F3FF1AA908009606CC06FCFF1AA902009606761F77
:20B2700001F01A0B8000761F01F11A0A00081A0A0004761F01F01A0B8000761F01F11A0A77
:20B2800000201A0A0010761F01F21A0B01001A0B00801A0B0040761F01F11A0B00101A0BC1
:20B2900000081A0B00041A0B00021A0B00011A0A80001A0A40001A0A20001A0A10001A0A7C
:20B2A00002001A0A01001A0A00801A0A0040D4009B01FF699A917640B45E9A91D4009B00FA
:20B2B0007640B3D29A92D4009B017640B45E9A92D4009B007640B3D29A93D4009B017640B6
:20B2C000B45E9A93D4009B007640B3D29A94D4009B017640B45E9A94D4009B007640B3D247
:20B2D0009A95D4009B017640B45E9A95D4009B007640B3D29A96D4009B017640B45E9A9686
:20B2E000D4009B007640B3D29A97D4009B017640B45E9A97D4009B007640B3D29A98D4005A
:20B2F0009B017640B45E9A98D4009B007640B3D29A99D4009B017640B45E9A99D4009B00F1
:20B300007640B3D29A9AD4009B017640B45E9A9AD4009B007640B3D29A9BD4009B0176404D
:20B31000B45E9A9BD4009B007640B3D29A9CD4009B017640B45E9A9CD4009B007640B3D2DE
:20B320009A9DD4009B017640B45E9A9DD4009B007640B3D29A9ED4009B017640B45E9A9E15
:20B33000D4009B007640B3D29A9FD4009B017640B45E9A9FD4009B007640B3D29AA0D400F1
:20B340009B017640B45E9AA0D4009B007640B3D29AA1D4009B017640B45E9AA1D4009B0088
:20B350007640B3D29AA2D4009B017640B45E9AA2D4009B007640B3D29AA3D4009B017640E5
:20B36000B45E9AA3D4009B007640B3D29AA4D4009B017640B45E9AA4D4009B007640B3D276
:20B370009AA5D4009B017640B45E9AA5D4009B007640B3D29AA6D4009B017640B45E9AA6A5
:20B38000D4009B007640B3D29AA7D4009B017640B45E9AA7D4009B007640B3D29AA8D40089
:20B390009B017640B45E9AA8D4009B007640B3D29A76D4009B017640B45E9A76D4009B0086
:20B3A0007640B3D2761F01FC1A1D0040761F01F1180DFBFF1A050030761F01E456BF3A008B
:20B3B0009A21D4009B017640B45E9A21D4009B007640B3D29A7CD4009B017640B45E9A7CC1
:20B3C000D4009B007640B3D29A83D4009B017640B45E9A839B00D4007640B3D2761AFF69AF
:20B3D000FE840006FE0E7C4B974A9649901F964C9249900F964D92499007964E29018F0045
:20B3E0007C009249FFC4FF84560301A9560100A4A842924A52036670924B520F69026F6C3D
:20B3F000924CFFC3560301A9074209061E44924CFFC3560301A9074209201E46924CFFC2C8
:20B40000560301A9074209281E487622FF6902038A44FF5A5603014D16A9563BFF55FF5A79
:20B4100092ABC0C492AAC0CC0203FF5A8A465603014D16A9563BFF55FF5A92ABC0C492AAC4
:20B42000C0CC0203FF5A924BFFC188A98A46A9A989A6FF5A5603014D16A9563BFF5A92AB1D
:20B4300098C492AA98CC0203894B8A44FF5A5603014D16A9563BFF5A92AB98C492AA98CC77
:20B440000203FF5A8A485603024E16A9563BFF55FF5A92ABC0C492AAC0CC0203894A8A48E3
:20B45000FF5A5603024E16A9563BFF5A92AB98C492AA98CC761AFE8EFF690006FE187C5785
:20B4600097569655901F0EA91E4E9255900F0EA91E502D4E0201563B1E5229018F007C00C3
:20B470009255FFC4FF84560301A9560100A4A842020A07421E44020C07421E4602100742DA
:20B480001E48021207421E4A064EFF43FF30074209021E4C76228A440652FF55C0C4C1CCDB
:20B4900092565201601F8A44065298C499CC42576C068A4A065298C499CC6F068A4A065262
:20B4A000FF55C0C4C1CC9257900561078A460652FF55C0C4C1CC6F238A46065298C499CC39
:20B4B0006F1E8A440652FF55C0C4C1CC40576C078A460652FF55C0C4C1CC6F058A46065231
:20B4C00098C499CC41576C068A48065298C499CC6F068A480652FF55C0C4C1CC9257903009
:20B4D000FFC30EA91E54FF6902038A4CFF5A5603015016A9563BFF55FF5A92ABC0C492AA31
:20B4E000C0CC0654610CA354560301508A4C16A9563BFF5A92AB98C492AA98CC761AFE987A
:20B4F000FF690006FE0A974A9649901F0EA91E462D460201563B1E4829018F007C009249BF
:20B50000FFC4FF84560301A9560100A4A842023C07421E447622924A61068A44064898C4C1
:20B5100099CC6F068A440648FF55C0C4C1CC761AFE8AFF690006FE0296417622761F01E451
:20B520009603761AFF69FE820006FE0296417622761F01E49604761AFF69FE820006FE02F3
:20B5300096417622761F01E49605761AFF69FE820006FE0296417622761F01E4960C761ADE
:20B54000FF69FE820006FE0296417622761F01E4960D761AFF69FE820006762228A9FFFF8C
:20B5500028A87FFF761F01F21E0C761F01F302081E0C761F01F402201E0C3B01761F01F581
:20B56000FF29FFFF1E0C761AFF69000676228F3FFC1C761F01F0A80C28A90E0028A8FC001A
:20B57000761F01F11E0C28A943E728A81EF0761F01F21E0C761F01F302081E0C761F01F438
:20B5800002001E0C3B01761F01F5FF29FFFF1E0C761AFF690006FE02761F17400608290146
:20B5900018A907009100FF479641520560047640B5666F06520660047640B54D6F01FE82C0
:20B5A0000006FE049643FFC429018F007F00FF81560301A9560100A4A8429243901F2DA9ED
:20B5B00006C456221EA692A690019644FE840006FE0697469645FFC429018F007F00FF8113
:20B5C000560301A9560100A4A84202011EA69245901F2DA906A6563B1E449246600406443B
:20B5D0001EE46F0306441ED4FE860006761BFFF00005ABBDA8BDA0BDC2BDC3BDE20000BDD4
:20B5E000E20300BDE20301BDE20302BDE20303BDE20304BDE20305BDE6300600FE02FF69EC
:20B5F00029425616761F01FC1A230020761F002CE2C40000761F02C0E203000A761F002C07
:20B60000E2C40020761F02C0E203000C761F002DE2C40000761F02C0E203000EE801FD91F3
:20B61000E801F038E2AF020AE80E4258E7000010E80E8729E71000407700E2030012E801B1
:20B62000D4D9E801F070E2AF020CE80FCE31E7000051E80EC8B8E72000087700E203001452
:20B63000E801F100E8020BA1E2AF020EE80A0C48E7000010E80FAE19E71000407700E2035B
:20B640000016E8121BD0AD146313061C1E18E2AF001CE88FE0007700E203001CE8121E408C
:20B65000AD146508E8021BD0E203001C6F03061A1E18E2AF0016E2AF0118E7200008770037
:20B66000E2030024E2AF0226E2AF0324E801F4C9E801E118E324D41EE80CCCD1E80EB85040
:20B67000E7000061E3008524E70000697700E71000407700E2030028E2AF002AE2AF0128EF
:20B68000E71000407700E203002A06241E26E801E118E2AF012AE80EB850E6940001AD14A7
:20B690006307E801E118E80EB850E203002AE2AF002AE8120500AD146505E8020500E20388
:20B6A000002AE2AF0112E300412276408B76761F02C0E203002CE2AF0014E2AF012CE720ED
:20B6B00000087700E203002EE8022161E801F3A8E2AF0230E2AF032EE80C0001E80E1478FC
:20B6C000E324D41EE7000061E300852EE70000697700E71000407700E2030032E2AF003442
:20B6D000E2AF0132E71000407700E2030034062E1E30E5A0AD146304E590E2030034E80129
:20B6E000FBE8E2AF0134E80B8520E6940001AD146507E801FBE8E80B8520E2030034E2AF53
:20B6F0000034E8511E807700E8D11E807700E68E0000761F0115E213002B761F02C0E2AFC3
:20B700000034E8CFE001E2AF0014E70000087700E2030036E2AF0016E8121E90AD14650DB5
:20B71000761F02C1E2AF0000E8121E90AD146505761F02C056BF0106761F02C092065201A8
:20B72000602D0A079207520369032B070A082901C4128F00AE0056030108560100A4C2C4AD
:20B73000C414560301088F00AA00560100A4C2C4C416560301088F00AC00560100A4C2C40D
:20B74000C4368F00A80056030108560100A4C2C4920852FA69032B082B060616761F02C1AB
:20B750001E00761F01FC1A250020761F01D01A040001761F003356BF0121FE82E2AF05BE72
:20B76000E2AF04BEE2AF03BEE2AF02BEE2AF01BEE2AF00BEE28000BEC5BEC4BE83BE8ABE86
:20B7700087BE00033B30FFF176177602761BFFF0E20000BDE630060029425616761F003337
:20B7800056BF0121E28000BEFFF176177602761BFFF0E20000BDE630060029425616761FB6
:20B79000003356BF0121E28000BEFFF1761776027622761F01F41822F3FF1822CFFF18228A
:20B7A0003FFF1823FFFC1A0B00201A0B00401A0B00801A0B0100761A761F01FC1A2500201F
:20B7B0001A2500401A2500801A250100FF69000676228F00B776761F0035A8068F00B787F4
:20B7C000A808761A7622761F01F01806FFCF180AFFFB1802FFCF1806FF3F180AFFF718028D
:20B7D000FF3F1800FF00761A9A02FF697640B51B9A037640B525761F01C1CC30FFF3500424
:20B7E0009630CC31FFF3500496311A3000011A3100010006761F02C2A8260006761F02C256
:1CB7F000A82800060006561F7622B9C028290068761A004003B896BD76120006B6
:00000001FF
